{
  "_format": "hh-sol-artifact-1",
  "contractName": "HelloWorldV2",
  "sourceName": "contracts/HelloWorldV2.sol",
  "abi": [
    {
      "inputs": [],
      "stateMutability": "nonpayable",
      "type": "constructor"
    },
    {
      "inputs": [],
      "name": "InvalidInitialization",
      "type": "error"
    },
    {
      "inputs": [],
      "name": "NotInitializing",
      "type": "error"
    },
    {
      "inputs": [
        {
          "internalType": "address",
          "name": "owner",
          "type": "address"
        }
      ],
      "name": "OwnableInvalidOwner",
      "type": "error"
    },
    {
      "inputs": [
        {
          "internalType": "address",
          "name": "account",
          "type": "address"
        }
      ],
      "name": "OwnableUnauthorizedAccount",
      "type": "error"
    },
    {
      "anonymous": false,
      "inputs": [
        {
          "indexed": false,
          "internalType": "uint64",
          "name": "version",
          "type": "uint64"
        }
      ],
      "name": "Initialized",
      "type": "event"
    },
    {
      "anonymous": false,
      "inputs": [
        {
          "indexed": true,
          "internalType": "address",
          "name": "previousOwner",
          "type": "address"
        },
        {
          "indexed": true,
          "internalType": "address",
          "name": "newOwner",
          "type": "address"
        }
      ],
      "name": "OwnershipTransferred",
      "type": "event"
    },
    {
      "inputs": [
        {
          "internalType": "address",
          "name": "_owner",
          "type": "address"
        }
      ],
      "name": "initialize",
      "outputs": [],
      "stateMutability": "nonpayable",
      "type": "function"
    },
    {
      "inputs": [],
      "name": "owner",
      "outputs": [
        {
          "internalType": "address",
          "name": "",
          "type": "address"
        }
      ],
      "stateMutability": "view",
      "type": "function"
    },
    {
      "inputs": [],
      "name": "renounceOwnership",
      "outputs": [],
      "stateMutability": "nonpayable",
      "type": "function"
    },
    {
      "inputs": [
        {
          "internalType": "string",
          "name": "_newText",
          "type": "string"
        }
      ],
      "name": "setText",
      "outputs": [],
      "stateMutability": "nonpayable",
      "type": "function"
    },
    {
      "inputs": [],
      "name": "text",
      "outputs": [
        {
          "internalType": "string",
          "name": "",
          "type": "string"
        }
      ],
      "stateMutability": "view",
      "type": "function"
    },
    {
      "inputs": [
        {
          "internalType": "address",
          "name": "newOwner",
          "type": "address"
        }
      ],
      "name": "transferOwnership",
      "outputs": [],
      "stateMutability": "nonpayable",
      "type": "function"
    }
  ],
  "bytecode": "0x608060405234801561001057600080fd5b5061001f61002460201b60201c565b61018e565b600061003461012860201b60201c565b90508060000160089054906101000a900460ff161561007f576040517ff92ee8a900000000000000000000000000000000000000000000000000000000815260040160405180910390fd5b67ffffffffffffffff80168160000160009054906101000a900467ffffffffffffffff1667ffffffffffffffff16146101255767ffffffffffffffff8160000160006101000a81548167ffffffffffffffff021916908367ffffffffffffffff1602179055507fc7f505b2f371ae2175ee4913f4499e1f2633a7b5936321eed1cdaeb6115181d267ffffffffffffffff60405161011c9190610173565b60405180910390a15b50565b60007ff0c57e16840df040f15088dc2f81fe391c3923bec73e23a9662efc9c229c6a00905090565b600067ffffffffffffffff82169050919050565b61016d81610150565b82525050565b60006020820190506101886000830184610164565b92915050565b610d348061019d6000396000f3fe608060405234801561001057600080fd5b50600436106100625760003560e01c80631f1bd692146100675780635d3a1f9d14610085578063715018a6146100a15780638da5cb5b146100ab578063c4d66de8146100c9578063f2fde38b146100e5575b600080fd5b61006f610101565b60405161007c9190610743565b60405180910390f35b61009f600480360381019061009a91906108ae565b61018f565b005b6100a96101a2565b005b6100b36101b6565b6040516100c09190610938565b60405180910390f35b6100e360048036038101906100de919061097f565b6101ee565b005b6100ff60048036038101906100fa919061097f565b61037d565b005b6000805461010e906109db565b80601f016020809104026020016040519081016040528092919081815260200182805461013a906109db565b80156101875780601f1061015c57610100808354040283529160200191610187565b820191906000526020600020905b81548152906001019060200180831161016a57829003601f168201915b505050505081565b806000908161019e9190610bc2565b5050565b6101aa610403565b6101b4600061048a565b565b6000806101c1610561565b90508060000160009054906101000a900473ffffffffffffffffffffffffffffffffffffffff1691505090565b60006101f8610589565b905060008160000160089054906101000a900460ff1615905060008260000160009054906101000a900467ffffffffffffffff1690506000808267ffffffffffffffff161480156102465750825b9050600060018367ffffffffffffffff1614801561027b575060003073ffffffffffffffffffffffffffffffffffffffff163b145b905081158015610289575080155b156102c0576040517ff92ee8a900000000000000000000000000000000000000000000000000000000815260040160405180910390fd5b60018560000160006101000a81548167ffffffffffffffff021916908367ffffffffffffffff16021790555083156103105760018560000160086101000a81548160ff0219169083151502179055505b610319866105b1565b83156103755760008560000160086101000a81548160ff0219169083151502179055507fc7f505b2f371ae2175ee4913f4499e1f2633a7b5936321eed1cdaeb6115181d2600160405161036c9190610ce3565b60405180910390a15b505050505050565b610385610403565b600073ffffffffffffffffffffffffffffffffffffffff168173ffffffffffffffffffffffffffffffffffffffff16036103f75760006040517f1e4fbdf70000000000000000000000000000000000000000000000000000000081526004016103ee9190610938565b60405180910390fd5b6104008161048a565b50565b61040b6105c5565b73ffffffffffffffffffffffffffffffffffffffff166104296101b6565b73ffffffffffffffffffffffffffffffffffffffff16146104885761044c6105c5565b6040517f118cdaa700000000000000000000000000000000000000000000000000000000815260040161047f9190610938565b60405180910390fd5b565b6000610494610561565b905060008160000160009054906101000a900473ffffffffffffffffffffffffffffffffffffffff169050828260000160006101000a81548173ffffffffffffffffffffffffffffffffffffffff021916908373ffffffffffffffffffffffffffffffffffffffff1602179055508273ffffffffffffffffffffffffffffffffffffffff168173ffffffffffffffffffffffffffffffffffffffff167f8be0079c531659141344cd1fd0a4f28419497f9722a3daafe3b4186f6b6457e060405160405180910390a3505050565b60007f9016d09d72d40fdae2fd8ceac6b6234c7706214fd39c1cd1e609a0528c199300905090565b60007ff0c57e16840df040f15088dc2f81fe391c3923bec73e23a9662efc9c229c6a00905090565b6105b96105cd565b6105c28161060d565b50565b600033905090565b6105d5610693565b61060b576040517fd7e6bcf800000000000000000000000000000000000000000000000000000000815260040160405180910390fd5b565b6106156105cd565b600073ffffffffffffffffffffffffffffffffffffffff168173ffffffffffffffffffffffffffffffffffffffff16036106875760006040517f1e4fbdf700000000000000000000000000000000000000000000000000000000815260040161067e9190610938565b60405180910390fd5b6106908161048a565b50565b600061069d610589565b60000160089054906101000a900460ff16905090565b600081519050919050565b600082825260208201905092915050565b60005b838110156106ed5780820151818401526020810190506106d2565b60008484015250505050565b6000601f19601f8301169050919050565b6000610715826106b3565b61071f81856106be565b935061072f8185602086016106cf565b610738816106f9565b840191505092915050565b6000602082019050818103600083015261075d818461070a565b905092915050565b6000604051905090565b600080fd5b600080fd5b600080fd5b600080fd5b7f4e487b7100000000000000000000000000000000000000000000000000000000600052604160045260246000fd5b6107bb826106f9565b810181811067ffffffffffffffff821117156107da576107d9610783565b5b80604052505050565b60006107ed610765565b90506107f982826107b2565b919050565b600067ffffffffffffffff82111561081957610818610783565b5b610822826106f9565b9050602081019050919050565b82818337600083830152505050565b600061085161084c846107fe565b6107e3565b90508281526020810184848401111561086d5761086c61077e565b5b61087884828561082f565b509392505050565b600082601f83011261089557610894610779565b5b81356108a584826020860161083e565b91505092915050565b6000602082840312156108c4576108c361076f565b5b600082013567ffffffffffffffff8111156108e2576108e1610774565b5b6108ee84828501610880565b91505092915050565b600073ffffffffffffffffffffffffffffffffffffffff82169050919050565b6000610922826108f7565b9050919050565b61093281610917565b82525050565b600060208201905061094d6000830184610929565b92915050565b61095c81610917565b811461096757600080fd5b50565b60008135905061097981610953565b92915050565b6000602082840312156109955761099461076f565b5b60006109a38482850161096a565b91505092915050565b7f4e487b7100000000000000000000000000000000000000000000000000000000600052602260045260246000fd5b600060028204905060018216806109f357607f821691505b602082108103610a0657610a056109ac565b5b50919050565b60008190508160005260206000209050919050565b60006020601f8301049050919050565b600082821b905092915050565b600060088302610a6e7fffffffffffffffffffffffffffffffffffffffffffffffffffffffffffffffff82610a31565b610a788683610a31565b95508019841693508086168417925050509392505050565b6000819050919050565b6000819050919050565b6000610abf610aba610ab584610a90565b610a9a565b610a90565b9050919050565b6000819050919050565b610ad983610aa4565b610aed610ae582610ac6565b848454610a3e565b825550505050565b600090565b610b02610af5565b610b0d818484610ad0565b505050565b5b81811015610b3157610b26600082610afa565b600181019050610b13565b5050565b601f821115610b7657610b4781610a0c565b610b5084610a21565b81016020851015610b5f578190505b610b73610b6b85610a21565b830182610b12565b50505b505050565b600082821c905092915050565b6000610b9960001984600802610b7b565b1980831691505092915050565b6000610bb28383610b88565b9150826002028217905092915050565b610bcb826106b3565b67ffffffffffffffff811115610be457610be3610783565b5b610bee82546109db565b610bf9828285610b35565b600060209050601f831160018114610c2c5760008415610c1a578287015190505b610c248582610ba6565b865550610c8c565b601f198416610c3a86610a0c565b60005b82811015610c6257848901518255600182019150602085019450602081019050610c3d565b86831015610c7f5784890151610c7b601f891682610b88565b8355505b6001600288020188555050505b505050505050565b6000819050919050565b600067ffffffffffffffff82169050919050565b6000610ccd610cc8610cc384610c94565b610a9a565b610c9e565b9050919050565b610cdd81610cb2565b82525050565b6000602082019050610cf86000830184610cd4565b9291505056fea26469706673582212208dba0dd8a454de1004c5972487e1a7535fdcd85dbdd4e1215229392bd5ad681264736f6c63430008180033",
  "linkReferences": {},
  "deployedLinkReferences": {}
}